:100000000C9491020C94AE020C94AE020C94AE02CD
:100010000C94AE020C94AE020C94AE020C94AE02A0
:100020000C94AE020C94AE020C9445120C94871101
:100030000C94601C0C94AE020C94AE020C94AE02B4
:100040000C94AE020C94AE020C94AE020C94AE0270
:100050000C94AE020C941F1C0C94AE020C94AE02D5
:100060000C94AE020C94AE020C94AE020C94AE0250
:100070000C94AE020C94AE020C94AE020C94AE0240
:100080000C94AE020C94AE020C94AE020C94AE0230
:100090000C94AE020C94AE020C94AE020C94AE0220
:1000A0000C94AE020C94AE020C94AE02DF03E40397
:1000B000EE03E203E703EC03EA03B8042C05C004F3
:1000C0008A048E04C4049104C704D2049C0422054B
:1000D000A004D604A404DA040405A804DE040E0572
:1000E000AE04E404EE049504CB049804CE04B304F7
:1000F000E904FA041A051C058604BC043505CB0581
:10010000CB05FE05FE057B069906960796079E061B
:100110001207230723078D0FB40F6F11B40F6F1150
:10012000001023106F112511351105010980A1015F
:10013000850319012AB700150126B700950175102E
:100140008100C0050C0901A101850419012AA00242
:10015000150126A002950175108100C00501090650
:10016000A1018506050719E029E715002501950875
:10017000750181020507190029EF1500250195F089
:10018000750181020508190129059505750191027E
:10019000950175039101C005010902A1010901A1A1
:1001A0000005091901290815002501950875018127
:1001B000020501093009311581257F9502750881F5
:1001C0000609381581257F950175088106050C0AF9
:1001D00038021581257F950175088106C0C006602B
:1001E000FF0961A1010962150026FF00952075082D
:1001F00081020963150026FF00952075089102C051
:1002000005010906A101050719E029E715002501E7
:10021000950875018102950175088101050719008E
:1002200029FF150026FF00950675088100050819AD
:1002300001290515002501950575019102950175A6
:10024000039101C009027400040100A0FA0904002E
:1002500000010301010009211101000122440007EE
:1002600005810308000109040100020300000009E0
:10027000211101000122220007058303200001074C
:100280000504032000010904020001030102000922
:100290002111010001224700070582031000010916
:1002A0000403000103000000092111010001226D77
:1002B000000705850320000112010002000000086C
:1002C0009732744900010102030118036D004500D3
:1002D0003400340058002F0041004A0030004F0025
:1002E0006500000016034500720067006F0064009F
:1002F0006F007800200045005A00000028035A00D3
:1003000053004100200054006500630068006E0047
:100310006F006C006F006700790020004C006100E6
:10032000620073000000040309042900E101E122D6
:10033000E021E32800001E02140004001D0001005B
:1003400001001F021A0016001B0039002A2C20028F
:1003500008000700060050002C00210215000900CB
:1003600019004F240100220217000A0005000000B6
:1003700050000100E10800004F0800004F0001009C
:100380006152000001000000520023021C000B001B
:10039000110000005100240218000D00100052410D
:1003A000010025020C000E00360051002B00260231
:1003B00012000F0037002F00E20027021300334223
:1003C00038313000640001002A2128002252010047
:1003D00000002900010001000100010000003A00B6
:1003E000200026002F02300001003B0027003400CF
:1003F0002F004200037E3C00211422002214400002
:1004000028783D002E142D002D14410001003E00DF
:1004100021001F00240000002178010001000000DD
:100420000100000027780100010000000100000029
:1004300020783F002314250023000000027E4000A6
:100440006400271432000100017E4100640234027E
:1004500036020100237842002E001E003702010000
:10046000247843002E0210022514010001004400EC
:1004700045000100010020140000010001000100FE
:100480000100010000000100010001000100010065
:10049000010001000100CF00010001000100010086
:1004A000CD00CE000100D100010001000100D0000C
:1004B0000100D20001000100010001000100000064
:1004C0000100010001000000010000000100010026
:1004D0000100000001000000010001001F140100E4
:1004E0000100000001000100010020141F14A900F8
:1004F0000100010001003000AC00AA00B6000100BC
:1005000001000100AB00A800010001000100010092
:10051000010001000100007C0100AE0001000100AB
:10052000000011241FBECFEFDAE0DEBFCDBF11E027
:10053000A0E0B1E0E0E8F0E402C005900D92A83838
:10054000B107D9F722E0A8E8B1E001C01D92AF3AA7
:10055000B207E1F70E9453090C943E200C9400006E
:10056000982F92959F7019F0892F24E001C020E008
:10057000982F9695969511F02E5F892F982F969526
:1005800009F02F5F822F089590E0FC01EF5DFE4F90
:10059000208121111AC0F894FC01ED5EFE4F80818C
:1005A000E82FE295EF70F0E031A1282F2F7081E065
:1005B00090E001C0880F2A95EAF7982F9095932331
:1005C00091A392A1892B82A378940895A6E0B0E02C
:1005D000ECEEF2E00C94971F49835A8349815A81CB
:1005E000992361F0222351F0CA010E94DC18182FD0
:1005F000682F89819A810E944C1904C0CA010E9407
:100600001819182F69817A81812F0E9482142696E9
:10061000E3E00C94B31FA4E3B0E0E1E1F3E00C9459
:10062000941F4FA758AB69AB7AAB8BAB9CAB192F20
:10063000911110921D02DE01989687E0FD01119242
:100640008A95E9F786E0FE01BF9601900D928A95A2
:10065000E1F7EFA4F8A80BA90023E9F021E0A70136
:100660006AA57BA5C8010E94E6028091C00188238B
:1006700091F0111102C087E001C086E08983EA820F
:10068000FB828EEF8C8340E250E0BE016F5F7F4FB4
:1006900083E00E949D1BE8A6F9A60CA71DA787E092
:1006A000FE01B896DE01919601900D928A95E1F7D0
:1006B000CE0181960E94A61681112CC087E0FE0112
:1006C000B196DE01119601900D928A95E1F76DA128
:1006D000662301F12091E10130E0C90101968770A4
:1006E000992740911A0250E08417950761F16D83B4
:1006F00097E0929FD001939FB00D1124AE51BE4F51
:10070000FE01319601900D929A95E1F78093E101F7
:100710000E94431617E080911A029091E101891717
:10072000F9F0189FC00111248E519E4F0E94A61609
:100730008823B1F080911A0290E001968770992782
:1007400080931A02E8CF0E94C5191092E10110921D
:100750001A02EAEDF1E087E0DF011D928A95E9F7E0
:10076000E496E6E00C94B01F27982F9808952698F9
:100770002E98089525982D9808952F9A08952E9AC9
:1007800008952D9A0895A0E2B0E0E9ECF3E00C940E
:10079000961F082F0E94B002182F5E980E94BA037D
:1007A0000E94B7030E94B403812F90E0FC013197AF
:1007B000E730F105A8F4EA5AFF4F0C942B200E9471
:1007C000C1030EC00E94C1030E94BF0309C00E9462
:1007D000C10304C00E94C1030E94BF030E94BD0365
:1007E0008091C0018823D9F080918B011817B9F04E
:1007F00010938B018FE39CE90197F1F700C0000093
:1008000085E0898380918B018A838EEF8B8340E220
:1008100050E0BE016F5F7F4F83E00E949D1B802FE1
:10082000A096E4E00C94B21FA0E0B0E0EAE1F4E0AE
:100830000C94911FFC018481882309F4FEC38F016D
:1008400021E0408151816281738195810E94E6029D
:10085000EC0181159E47D1F5F80185818823B1F11E
:1008600090919E0181E0890F8770987F853020F4F8
:10087000892B80939E0102C090939E0180919E01DE
:100880008770FFEF8F9FC0011124959587959595EF
:1008900087959927909389008093880090938B0087
:1008A00080938A0090938D0080938C0040919E01EC
:1008B00050919F016091A0017091A1018FE090E0A3
:1008C0000E94F51F80919D010E94C303F80185815C
:1008D000882309F406C1CE019057839708F0DBC046
:1008E00084E090E00E94CD1F9093A9028093A8021B
:1008F000FE01E150F047E232F10520F4E35AFF4FE8
:100900000C942B208091A8028160ACC08091A90238
:100910008860B4C08091A8028260A4C08091A802BF
:1009200020C08091A80288609DC08091A9021EC04D
:100930008091A9028260A2C08091A802806192C0C9
:100940008091A80280628EC08091A80280648AC0D3
:100950000E94C5198091A802806884C08091A80275
:10096000886084607FC08091A9028260816086C0B7
:100970008091A8028E7F76C08091A902877F7EC079
:100980008091A8028D7F6EC08091A80220C08091C6
:10099000A802877F67C08091A9021EC08091A9022A
:1009A0008D7F6CC08091A8028F7E5CC08091A80270
:1009B0008F7D58C08091A8028F7B54C00E94C519BA
:1009C0008091A8028F774EC08091A802877F8B7F8D
:1009D00049C08091A9028D7F8E7F50C08091A8026E
:1009E00082FB222720F991E0922790FB82F990FB6D
:1009F00083F938C08091A902982F909591708E7FCD
:100A0000892B90FB81F93AC08091A80286FB2227AE
:100A100020F991E0922790FB86F924C00E94C51925
:100A20008091A80287FB222720F991E0922790FB72
:100A300087F918C061E001C060E08EE090E00E949C
:100A4000E31F1EC08091A80284FB222720F991E0B9
:100A5000922790FB84F906C08091A802982F909568
:100A600090FB80F98093A8020BC08091A90283FBC0
:100A7000222720F991E0922790FB83F98093A90225
:100A80006091A8027091A90284E090E00E94012088
:100A90000E94C51914C0C6312CE7D20709F078C2EC
:100AA000809146028A7A91E009F490E090938C015B
:100AB0008111C1C289E20E94B71C0E94C3158091B6
:100AC0001B02877009F4B9C2F8018581882309F4F3
:100AD000B4C28091A90282FFB0C282E00E941516C2
:100AE000ACC2C631DC4709F449C2F8018581C08136
:100AF000D181882349F0CE010E94DC18F82E682F9E
:100B0000CE010E944C1904C0CE010E941819F82E83
:100B1000BE018F2D0E9482140E949F14F82EC92FAF
:100B2000C82EF801D581E680E2949FE0E922809109
:100B30001B02877001F1DD23F1F08C2F807F803460
:100B400069F080E28F0D8830B0F08C2F807E80328B
:100B500029F4F1E0FF1578F4EE2069F08091A90204
:100B600082FF09C082E00E94151680911B028770E7
:100B7000DD24D3948111D12CBC2EB2948FE0B82205
:100B80008B2D90E08C30910508F0D0C1FC01E1582C
:100B9000FF4F0C942B208C2F807FCF70882311F077
:100BA000C295C07FDD23B9F0CC2309F4ADC180E24A
:100BB0008F0D883010F0C11006C090914602C92BED
:100BC000C093460205C090911D02C92BC0931D021F
:100BD0000E94C31599C18F2D0E94F31ACC2309F4EA
:100BE000A5C180E28F0D883088F1CC2079F1C095C5
:100BF00090911D02C923C0931D022BC08C2F807FB2
:100C0000CF70803211F0C295C07F8F2DCC2029F09B
:100C100021E0C21609F44CC055C08091A90282FDA2
:100C20001BC0DD2369F0CC2339F090914602C92B1B
:100C3000C09346020E94C31580E00E94261B76C125
:100C400080E00E94F31ACC2309F470C18C2F0E941B
:100C5000BC150E94C3156AC1DD2381F0EE20B1F1FD
:100C600081E0E81263C190911C028C2F8923C81780
:100C700009F45CC1C92BC0931C0258C1E11056C1D4
:100C80008C2F0E94F61980911C029C2F982329F02A
:100C90009C2F9095892380931C0220918D018C2F8D
:100CA000822309F443C1C0952C2320938D013EC1BA
:100CB000DD2329F091E09E1508F438C107C0E1104A
:100CC00035C115C0DD2331F0E1101EC18C2F0E940B
:100CD000FD192CC1EE2059F0893309F024C1EFEF42
:100CE000F7EE23E0E150F0402040E1F71AC18C2FED
:100CF0000E94F6191BC18C2F86958695837019F07A
:100D0000813061F013C1DD2321F08F2D9C2F937072
:100D100002C080E090E00E94131D0EC1DD2321F08F
:100D20008F2D9C2F937002C080E090E00E94EE1CFB
:100D300003C16D2F8F2D0E94071AFEC08C2F837068
:100D4000A9F5D111F7C04F2D429546954770440F34
:100D5000440F8F2D8F7090E09C01042E01C0220F54
:100D60000A94EAF7F4FE08C08FE090E001C0880F13
:100D70004A95EAF7809501C080E0C695C695C37094
:100D8000C23069F088F490919C01C13019F0822B37
:100D9000892302C0922B892B0E949F19CBC0822BE2
:100DA00090919C018927F8CF822BF6CFDD2319F093
:100DB0008C2F817001C08695882309F4BBC04F2D0C
:100DC000429546954770440F440F8F2D8F7090E0E9
:100DD0009C01042E01C0220F0A94EAF7F4FE08C019
:100DE0008FE090E001C0880F4A95EAF7809501C036
:100DF00080E0C695C695C370C23059F078F49091E2
:100E00009D01C13019F0822B892309C0922B892BB7
:100E100006C0822B90919D01892701C0822B0E94E0
:100E2000811988C0CF70DD2339F08C2F0E9493196F
:100E30008F2D0E94FD197EC08F2D0E94F6198C2FD8
:100E40000E94861977C08F2D92EFC91669F19C1503
:100E500038F0E0EFCE1659F0F1EFCF1601F150C0A7
:100E600023EFC21641F194EFC916A9F049C0DD2362
:100E700069F0E1105BC0CF7181E090E001C0880FA4
:100E8000CA95EAF790919D0189271FC0E1E0EE1510
:100E900008F44CC0F0CF8091A90282FD19C0DD2377
:100EA00029F08C2F8F711FC0DD23D9F38C2F8F7108
:100EB0000E9486193BC0DD2339F0CF7181E001C06B
:100EC000880FCA95EAF701C080E00E9481192EC000
:100ED000DD2361F08C2F8F71F8E08F9F900111243A
:100EE000236020931B020E94931920C081E00E947E
:100EF000151621E02E15D0F482E00E94151616C0BA
:100F0000DD2321F0EE2069F28F2D97CEEE2071F2D5
:100F1000893349F48FEF97EEE3E081509040E04051
:100F2000E1F700C000008F2D0E94F31A88EF8B0DAF
:100F3000843010F40E94381DDD20A9F080911B023E
:100F400080FD11C0F80115828695869586950E94D0
:100F50009319C8010E94140480911B0286958695FE
:100F600086950E94861920E0F801408151816281B6
:100F70007381848195810E94E6025FC080918C011B
:100F8000811104C089E20E94891C97CD85E3FBCFC3
:100F9000C330FCE7DF0779F190F4C1158CE7D8077F
:100FA000E1F0C130DC4709F0A0CD0E94C519FFEF88
:100FB00024E38CE0F15020408040E1F72BC0CB359A
:100FC000ECE7DE07A1F1CC35FCE7DF0741F1CA35DC
:100FD000DC4709F08ACD81E02BC00E94C5198FEF54
:100FE00094E3ECE081509040E040E1F700C0000065
:100FF0000E94ED1B64CD6FEF7FEF80E090E00E94D8
:1010000001200E94C5199FEFE4E3FCE09150E0400D
:10101000F040E1F700C000000E94E21B50CD80913B
:10102000A90282FB882780F991E0892701C080E02E
:101030000E942C165ACD85E33ECDCDB7DEB7E9E050
:101040000C94AD1FA0E2B0E0E8E2F8E00C94981F29
:101050009FEF99838A8340E250E0BE016F5F7F4F2C
:1010600083E00E949D1BA096E2E00C94B41FA1E0D7
:10107000B0E0EDE3F8E00C94961F8730F8F420918F
:101080000A0130910B01232BD1F521E030E0A901B9
:1010900002C0440F551F8A95E2F7CA0180958983E3
:1010A0000AE010E0AE014F5F5F4F62E180E40E9412
:1010B0008D1E90930B0180930A0121C090E0FC01EA
:1010C000EF5DFE4F208121111AC0F894FC01ED5E06
:1010D000FE4F8081E82FE295EF70F0E031A1282FDC
:1010E0002F7081E090E001C0880F2A95EAF7932FD6
:1010F000982B91A392A18095892382A3789421961D
:10110000E4E00C94B21F0F931F93CF9308E211E019
:10111000C7E0F80181918F01811103C08C2F0E94DB
:10112000C402CF5FCE30A9F7CF911F910F910895E0
:10113000A1E0B0E0EEE9F8E00C94961F082F8730AC
:10114000C8F480910A0190910B01892BE9F519826D
:101150000AE010E021E030E0AE014F5F5F4F63E155
:1011600080E40E94DB1E90930B0180930A01898129
:1011700080952BC00E943708ADE0B1E020E030E060
:1011800010E051E04D91E42FE295EF70F0E080A186
:1011900090E04F7002C0959587954A95E2F780FDE3
:1011A00007C0852F022E01C0880F0A94EAF701C0FC
:1011B00080E0182B2F5F3F4F2630310519F7802F25
:1011C0000E94C402812F01C080E02196E4E00C94CB
:1011D000B21FCF93DF93ADE0B1E043E151E061E0B6
:1011E00070E0F8948D91E82FE295EF70F0E021A186
:1011F0008F70EB0102C0CC0FDD1F8A95E2F7CE01A4
:101200009C2F9095922391A392A1892B82A37894ED
:101210004A175B0731F7DF91CF910895A2E0B0E064
:10122000E4E1F9E00C94961F80E290E090930B01CA
:1012300080930A0180918A0181110EC00E94101EC4
:1012400081E080938A012FEF83ED90E3215080406D
:101250009040E1F700C0000019828FE38A830AE022
:1012600010E022E030E0AE014F5F5F4F60E080E4CD
:101270000E948D1E90930B0180930A01892B69F4C3
:1012800022E030E0AE014F5F5F4F6CE080E40E94EF
:101290008D1E90930B0180930A0180910A01229682
:1012A000E4E00C94B21FA6E4B0E0E9E5F9E00C94A8
:1012B0008C1F85B7806885BF85B7806885BF84B778
:1012C000877F84BF0FB6F894A895809160008861ED
:1012D00080936000109260000FBE90E080E80FB62F
:1012E000F89480936100909361000FBE8FE493E1C6
:1012F00090938901809388010E94CB110E94EA118A
:101300008091E20084608093E20078948091D00123
:101310008823A1F01091E9001F709091EC00892FB3
:10132000817090FD80E8182B1092E9008091E80010
:1013300083FD0E94AB0E1F701093E90082E084BD14
:1013400093E095BD9AEF97BD80936E000E940E09C1
:1013500090E090930B0180930A010E9483080E9401
:10136000E908EEE8F1E08CE991E0A2EAB1E011923F
:101370001D928E179F07D9F780E090E00E94CD1F45
:10138000853E9E4F09F46EC065EE7EEF80E090E0F2
:101390000E94012060E082E090E00E94E31F81E073
:1013A00080939C0161E083E090E00E94E31F60E095
:1013B00074E184E090E00E94012060E086E090E02B
:1013C0000E94E31F60E087E090E00E94E31F40E09E
:1013D00050E0BA0188E090E00E94F51F60E083E2EF
:1013E00090E00E94E31F60E08CE090E00E94E31F29
:1013F00060E08DE090E00E94E31F19821A821B8258
:101400001C821D821E821F82188648E050E067E120
:1014100070E0CE0101960E94D31F40E050E0BA0177
:101420008FE190E00E94F51F10929E0110929F01A3
:101430001092A0011092A10184E080939E0140913E
:101440009E0150919F016091A0017091A1018FE0D8
:1014500090E00E94F51F40E050E0BA0183E190E087
:101460000E94F51F82E090E00E94BF1F8093B001B0
:1014700084E090E00E94CD1F9093A9028093A8027F
:101480000E9451188FEF93EFE1E081509040E040CF
:10149000E1F700C000000E9451188091A20180FF76
:1014A00008C06FEF7FEF80E090E00E9401200E9473
:1014B000ED1B83E090E00E94BF1F0E949F19809166
:1014C0009D010E94C30389EA8093800089E0809394
:1014D000810024982C983F98479A54985C9A559884
:1014E0005D9A6E98769A259A269A279A569A8FE050
:1014F00090E00E94C71F60939E0170939F018093AC
:10150000A0019093A10167701FEF169FB0011124F5
:1015100075956795759567957727709389006093A2
:10152000880070938B0060938A0070938D006093A5
:101530008C005E980E94BA030E94B7030E94B40315
:101540008FEF90E0909389008093880090938B00B8
:1015500080938A0090938D0080938C000E94C10339
:10156000FFEF20E782E0F15020408040E1F700C02B
:1015700000000E94BF039FEFE0E7F2E09150E040DF
:10158000F040E1F700C000000E94BD032FEF80E7AC
:1015900092E0215080409040E1F700C000000E949E
:1015A000BA03EFEFF0E722E0E150F0402040E1F72E
:1015B00000C000000E94B7038FEF90E7E2E0815087
:1015C0009040E040E1F700C000000E94B403809129
:1015D0009E018770189FC001112495958795959558
:1015E00087959927909389008093880090938B002A
:1015F00080938A0090938D0080938C005E980E9467
:10160000BA030E94B7030E94B40380E091E0909374
:10161000A5028093A40208E110E08091D0018530FA
:1016200009F056C030E4D32E40E1E42E52E1F52E0D
:101630008091D001853009F047C08091D00184307D
:1016400009F11092AA020FB6F894A89500936000D1
:101650000FBED092600083B7817F846083BF83B761
:10166000816083BF7894889583B78E7F83BF0FB6E0
:10167000F894A89580916000886180936000109232
:1016800060000FBE8091CF01882391F20E940E0965
:1016900090E090930B0180930A010E9483080E94BE
:1016A000E908E2EAF1E0119221E0E03BF207D9F724
:1016B0000E945118E2EAF1E08191811152C281E069
:1016C000E03BF807C9F7B4CF0E94C5190E94381D46
:1016D0000E94511821EBC22E21E0D22EA2EAB1E0E5
:1016E000F60191918D91892791E0EF3BF90719F06F
:1016F0008823B9F305C0811103C00E942D1855C07D
:1017000092EA892E91E0992EF12CF40171904F010B
:10171000F601A080A724B9F1E12CBB24B394662480
:1017200063948A2D8B2141F12296EFAE2297239666
:10173000FFAE23970E94541C25969FAF8EAF25972E
:1017400026966FAE269791E0872D8B2109F490E0C5
:1017500027969FAF279722964FAD229723965FAD8E
:10176000239724966FAD249725967FAD25972696CF
:101770008FAD26970E940B03E394BB0CF6E0EF12AB
:10178000D0CFF6017082F394FFEFCF1ADF0A2EE07C
:10179000F212BBCF8FB7F8944091AB025091AC02DC
:1017A0006091AD027091AE028FBFB0909D02C0906B
:1017B0009E02F0909F02D090A002E090A1021092B1
:1017C0009E0210929F021092A0021092A102C110DC
:1017D00003C0FF2009F447C080919B0290919C02B6
:1017E0000E94451C9C0190919602992309F4CFC157
:1017F00025313105C0F19F3F19F09F5F909396020C
:10180000CC2061F00E948C1D1C1414F491E001C0E6
:101810009FEF899F802D112480939E02FF2061F00D
:101820000E948C1D1F1414F09FEF01C091E0899F4E
:10183000802D112480939F0280919E02882399F02D
:10184000A0909F02AA2079F00E94AF1D811101C0D3
:1018500081E080939E028A2D0E94AF1D811101C0FC
:1018600081E080939F02D11003C0EE2009F447C0AD
:101870008091990290919A020E94451C9C0190913E
:101880009702992309F487C125313105C0F19F3FA3
:1018900019F09F5F90939702DD2061F00E946C1D0C
:1018A0001D1414F491E001C09FEF899F802D112435
:1018B0008093A002EE2061F00E946C1D1E1414F0B3
:1018C0009FEF01C091E0899F802D11248093A10298
:1018D0008091A002882399F0A090A102AA2079F01B
:1018E0000E94AF1D811101C081E08093A0028A2D6A
:1018F0000E94AF1D811101C081E08093A1028091FF
:101900009D028B111AC080919E02882311F08C11C8
:1019100014C080919F02882311F0F8120EC08091AC
:10192000A102882311F0E81208C09091A002992327
:1019300031F081E0D91204C002C081E001C080E032
:1019400080FD15C080919E0281110FC080919F0281
:1019500081110BC08091A002811107C081E090919C
:10196000A102911103C080E001C081E080FD0E94CE
:10197000451DB0929D02C0929E02F0929F02D092AD
:10198000A002E092A1020E94381D9091BF01891728
:1019900069F08093BF018FB7F8944091AB025091EA
:1019A000AC026091AD027091AE028FBF8091D00108
:1019B000843009F032CE8093E9008091E80082FF04
:1019C0002CCE8091E80085FF24C00E941C13811159
:1019D0001EC080E2E82EF12C6E0181E2C80ED11CFF
:1019E00009C08091F100F60181936F01F1E0EF1AD7
:1019F000F10869F08091E80085FDF3CF8091E8005F
:101A00008B778093E8000E941C13882399F391E060
:101A100001C090E08091E8008B778093E8009923E3
:101A200009F4FBCD89A1863009F479C0B0F4823085
:101A300009F4F3CD60F4882329F1813009F08DC0D9
:101A40008093C00184E089838EEF8A837DC08430D7
:101A500031F1853009F463C080C0893009F45FC07A
:101A600030F4873099F1883009F459C076C08A3053
:101A700009F457C08E3F09F070C0898394E09A83BF
:101A80008B8362C019828CE0EFE2F1E0DE011296F6
:101A900001900D928A95E1F78EEF8D8755C0809168
:101AA000C001882309F4B9CD8AA1811104C08BA19A
:101AB0000E948619B2CD81E090E00BA002C0880F91
:101AC000991F0A94E2F70E948119A7CD81E08093C3
:101AD000C2018AA18230C1F000F5882319F081305B
:101AE00051F01BC08BA1882319F00E94C10395CD32
:101AF0000E94BA0392CD8BA1882319F00E94BF03E4
:101B00008CCD0E94B70389CD8BA1882319F00E9448
:101B1000BD0383CD0E94B40380CD85E01FC084E067
:101B20001DC08AA1FF24F394811101C0F12CF09211
:101B3000C201811106C00E94BA030E94B7030E942D
:101B4000B4038BE08983FA8240E250E0BE016F5F0C
:101B50007F4F83E00E949D1B60CD8FEF0E94220883
:101B60005CCDE9BCF9BC09B400FEFDCF8091D80082
:101B70008F7D8093D8008091E00082608093E000A8
:101B80008091E00081FDFCCF0E94C51951CD232B2F
:101B900009F033CE68CE2139314008F07ACEAFCE8D
:101BA0008091D20187FF11C08091E80082FD05C0BD
:101BB0008091D0018111F8CF11C08091E8008B771E
:101BC0000BC08091D001882349F08091E80080FF0C
:101BD000F8CF8091E8008E778093E8000895982FE1
:101BE000973068F59093E900981739F07091EC0000
:101BF0002091ED005091F00003C0242F762F50E08B
:101C000021FD02C09F5FECCF3091EB003E7F30930F
:101C1000EB003091ED003D7F3093ED003091EB0013
:101C200031603093EB007093EC002093ED00509303
:101C3000F0002091EE0027FDE5CF80E008958F7041
:101C40008093E90081E008952091D8013091D90175
:101C50002617370748F06115710539F42091E8001F
:101C60002E772093E80001C0B901FC0120E0611546
:101C7000710579F18091D0018823F1F18530F1F17E
:101C80008091E80083FD3CC08091E80082FD2EC079
:101C90008091E80080FFEBCF2091F3008091F2006B
:101CA00090E0922B6115710551F08830910538F460
:101CB00021912093F100615071090196F3CF21E049
:101CC000089709F020E08091E8008E778093E80083
:101CD000CECF2111CFCF0AC08091D001882361F0EF
:101CE000853061F08091E80083FD0AC08091E800B2
:101CF00082FFF2CF80E0089582E0089583E00895A6
:101D000081E0089543E050E0BC0185E00E949D1B06
:101D1000089545E050E0BC0182E00E949D1B0895BB
:101D200040E250E0BC0185E00E949D1B0895CF93E6
:101D3000DF93EC0148E050E0BC0181E00E949D1B74
:101D400088E0FE01A6ECB1E001900D928A95E1F7E2
:101D5000DF91CF910895AAE2B0E0E1EBFEE00C94B0
:101D6000971FE2EDF1E08091F100819341E0EA3DBF
:101D7000F407C9F78091D301833009F463C030F4CC
:101D8000813071F0823009F49DC0B4C08A3009F40A
:101D900089C08B3009F46EC0893009F0ABC020C017
:101DA0008091D201813A09F0A5C08091E800877F37
:101DB0008093E8008091D6019091D701892B21F47E
:101DC00068E086EC91E003C060E080E090E070E0C5
:101DD0000E94240E8091E8008B778093E8008AC0EF
:101DE0008091D201813209F085C08091D601909115
:101DF000D701009719F0039709F07CC08091E800A3
:101E0000877F8093E8008091E80082FD05C0809183
:101E1000D0018111F8CF6EC02091F3008091F200C3
:101E200090E0922B029731F48091F100813011F013
:101E3000863021F48091F1008093C5018091E80003
:101E40008B7754C08091D201813A09F053C08091C0
:101E5000D6019091D701892B09F04CC08091E80000
:101E6000877F8093E8008091E80080FFFCCF80911D
:101E70000C0137C08091D2018132E1F58091D60109
:101E80009091D701892BB1F58091E800877F8093ED
:101E9000E8000E94D00D8091D40180930C010E9433
:101EA000C51928C08091D201813221F58091E800C6
:101EB000877F8093E8000E94D00D8091D5018093A8
:101EC000C40118C08091D201813AA1F48091E80048
:101ED000877F8093E8008091E80080FFFCCF8091AD
:101EE000C4018093F1008091E8008E778093E80030
:101EF0000E94D00D8091E80083FFF1C18091D20152
:101F00009091D301492F50E04A30510508F0E7C1C4
:101F1000FA01E557FF4F0C942B20803821F08238CE
:101F200009F0DDC108C08091CE019091CF019923C5
:101F300089F082600FC08091D6018F70873008F0E1
:101F4000CEC18093E9008091EB0085FB882780F962
:101F50001092E9009091E800977F9093E8008093B9
:101F6000F1001092F1007DC1282F2D7F09F0B7C13B
:101F7000882319F0823061F0B2C18091D4018130A0
:101F800009F0ADC1933009F080E08093CF012EC0FD
:101F90008091D40181112AC08091D6018F702FEFDA
:101FA000280F263008F09BC18093E9002091EB00B8
:101FB00020FF1CC0933021F48091EB00806214C09C
:101FC0009091EB0090619093EB0021E030E0A9014B
:101FD00002C0440F551F8A95E2F74093EA00109221
:101FE000EA008091EB0088608093EB001092E9009A
:101FF0008091E800877F8093E8000E94D00D6FC138
:1020000081116DC11091D4011F778091E300807818
:10201000812B8093E3008091E800877F8093E80024
:102020000E94D00D8091E80080FFFCCF8091E300FA
:1020300080688093E300111102C082E001C083E058
:102040008093D0014CC18058823008F048C1209163
:10205000D4013091D5012C3D53E0350779F583E06B
:102060008A838AE289834FB7F894DE01139620E0D1
:102070003EE051E2E32FF0E050935700E49120FF5F
:1020800003C0E295EF703F5FEF708E2F90E0EA3073
:1020900010F0C79601C0C0968D939D932F5F243199
:1020A00049F74FBF8091E800877F8093E8006AE29C
:1020B00070E0CE0101960E94240EC1C08091D6012D
:1020C0009091D701432F552743305105B1F068F463
:1020D0004130510509F412C14230510509F0FFC0E9
:1020E00084E790E0E4E4F2E057C04132510589F121
:1020F0004232510509F43CC0F2C0C9019927813030
:102100009105B9F070F082309105D9F0039709F08C
:10211000E6C0EAECF2E0E4918E2F90E0EAECF2E027
:1021200038C0E6E2F3E0E4918E2F90E0E6E2F3E0DF
:1021300030C0ECEFF2E0E4918E2F90E0ECEFF2E0B3
:1021400028C0E4EEF2E0E4918E2F90E0E4EEF2E0BD
:1021500020C08430910508F0C2C0880F991FFC018F
:10216000E95BFE4F0190F081E02D89E090E014C022
:102170008430910508F0B3C0FC01EE0FFF1FE15C55
:10218000FE4F0190F081E02DDC01A55CBE4F8C91EB
:1021900090E0009709F4A3C02091E800277F2093E6
:1021A000E8002091D8013091D9018217930708F4F3
:1021B0009C0140E02115310589F18091D0018823EF
:1021C00009F43DC08530D9F18091E80083FD37C026
:1021D0008091E80082FD2FC08091E80080FFEACF67
:1021E0004091F3008091F20090E0942B211531058D
:1021F00059F08830910540F444914093F1003196B4
:10220000215031090196F2CF41E0089709F040E0F2
:102210008091E8008E778093E800CCCF4111CDCF3C
:102220000AC08091D001882351F0853041F080911F
:10223000E80083FD04C08091E80082FFF2CF809126
:10224000E8008B778093E8004AC0803809F047C0E7
:102250008091E800877F8093E8008091D10180938E
:10226000F1008091E8008E77C6CE811138C0809150
:10227000D4019091D501992702978CF58091E800BF
:10228000877F8093E8001091D4011093D1010E94C0
:10229000D00D111106C08091E30087FD02C081E0DE
:1022A00001C084E08093D00142E061EC81E00E94B3
:1022B000EF0D42E161EC82E00E94EF0D42E261EC41
:1022C00085E00E94EF0D42E261EC83E00E94EF0D99
:1022D00042E260EC84E00E94EF0D8091D001809199
:1022E000E80083FF10C08091E800877F8093E800BA
:1022F0008091EB0080628093EB0005C082E190E06A
:10230000E8EBF2E049CFAA96E3E00C94B31F1F92EA
:102310000F920FB60F9211242F933F934F935F9319
:102320006F937F938F939F93AF93BF93CF93DF93DD
:10233000EF93FF93C091E900CF708091EC00D82F0C
:10234000D17080FDD0E81092E9008091F000877F85
:102350008093F00078940E94AB0E1092E900809177
:10236000F00088608093F000CD2BCF70C093E9001F
:10237000FF91EF91DF91CF91BF91AF919F918F919D
:102380007F916F915F914F913F912F910F900FBE71
:102390000F901F901895E8EDF0E080818E7F80838C
:1023A0001092E2001092DA001092E100A0EEB0E08C
:1023B0008C9181608C9380818F77808319BCA7ED8D
:1023C000B0E08C918E7F8C9380818F7E8083109281
:1023D000C3010895A0E0B0E0E0EFF1E10C94921F9A
:1023E000C8EDD0E088818F7E8883E7EDF0E08081C2
:1023F0008160808384E082BF81E08093C301888113
:102400008E7F888302EE10E0F80110821092DA00CD
:1024100081EEC82ED12CF601108288818F778883B7
:1024200088818068888388818F7D888319BC109219
:10243000D0011092D1011092CF011092CE0190EEF6
:10244000E92EF12CF70180818B7F80838881816068
:10245000888342E060E080E00E94EF0DF601808119
:102460008E7F8083F8018081816080838081886095
:102470008083F70180818E7F80838881806188835B
:10248000CDB7DEB7E8E00C94AE1F1F920F920FB6E7
:102490000F9211242F933F934F935F936F937F93EA
:1024A0008F939F93AF93BF93EF93FF938091E1003E
:1024B00082FF09C08091E20082FF05C08091E100A7
:1024C0008B7F8093E1008091DA0080FF2AC08091A9
:1024D000D80080FF26C08091DA008E7F8093DA00DA
:1024E0008091D90080FF18C080E189BD82E189BD5B
:1024F00009B400FEFDCF81E08093D0018091C3013B
:1025000081110FC00E94CB110E94EA118091E2005C
:1025100084608093E20005C019BC1092D001109233
:10252000C3018091E10080FF17C08091E20080FF2D
:1025300013C08091E2008E7F8093E2008091E200E0
:1025400080618093E2008091D80080628093D800FF
:1025500019BC85E08093D0018091E10084FF30C0F8
:102560008091E20084FF2CC080E189BD82E189BDB9
:1025700009B400FEFDCF8091D8008F7D8093D800F4
:102580008091E1008F7E8093E1008091E2008F7E58
:102590008093E2008091E20081608093E20080916C
:1025A000D101882311F084E007C08091E30087FD0A
:1025B00002C081E001C083E08093D0018091D0010E
:1025C0008091E10083FF27C08091E20083FF23C058
:1025D0008091E100877F8093E10082E08093D001C9
:1025E0001092D1018091E1008E7F8093E100809173
:1025F000E2008E7F8093E2008091E2008061809310
:10260000E20042E060E080E00E94EF0D8091F00087
:1026100088608093F000FF91EF91BF91AF919F91FF
:102620008F917F916F915F914F913F912F910F907B
:102630000FBE0F901F9018952091E4003091E50097
:1026400095E64091EC00842F817040FF23C080917B
:10265000E80080FD1DC08091D001882399F085306D
:1026600099F08091EB0085FD11C04091E4005091FC
:10267000E5002417350729F3915011F09A01E1CFB5
:1026800084E0089582E0089583E0089581E008954C
:1026900080E008954091E80042FFDDCF089580E09A
:1026A00008959091A80292FF10C041E0282F247154
:1026B000243009F040E031E0282F2871283009F05B
:1026C00030E0431711F02CE0822793FF10C041E067
:1026D000282F2471243109F040E031E0282F28719F
:1026E000283109F030E0431711F02CE082273091B7
:1026F000A90230FF10C051E0282F2171213009F0CC
:1027000050E041E0282F2871283009F040E05417AC
:1027100011F029E0822731FF10C041E0282F2171FC
:10272000213109F040E031E0282F2871283109F0EB
:1027300030E0431711F029E0822794FD877E089549
:102740008238910569F1B0F48133910509F475C0BF
:1027500048F48932910509F467C08A32910509F479
:1027600071C008958533910509F459C089339105E5
:10277000B9F00895833E910589F138F4803E9105C2
:10278000D1F0823E910529F10895863E9105C9F167
:10279000873E9105D9F1843E910509F06CC027C0B0
:1027A0002091A80220FD57C021FD55C02091A9020B
:1027B00023FD5BC008958091A80280FD48C08091F0
:1027C000A90280FF48C08091A80284FD46C083EE24
:1027D00051C08091A80282FF3CC0F5CF8091A80231
:1027E00082FD37C08091A90280FD35C0ECCF809179
:1027F000A90281FF36C08091A80284FD2EC087EE19
:1028000039C08091A80283FF2AC0F5CF8091A80229
:1028100083FD25C08091A90281FD23C0ECCF80916A
:10282000A80285FD22C01FC08091A80285FD1BC0A3
:102830008091A90283FF19C00AC08091A80286FD79
:1028400016C017C08091A80286FD13C010C089E38E
:1028500011C082EE0FC080EE0DC080E00BC086EE8E
:1028600009C084EE07C085E305C089E203C08AE29F
:1028700001C081E390E008959091460280911D028D
:10288000892B90911C029923E1F0892B90910C01E6
:10289000992341F09091A80297FF04C09EE128E798
:1028A00032E003C096E020E732E0F90120E09150E9
:1028B00028F031913323D9F32F5FF9CF21111092F2
:1028C0001C02089520911A029091E10157E0291706
:1028D000A9F030E0529FF001539FF00D1124EE510A
:1028E000FE4F7181761306C07081781303C0758125
:1028F000741306C02F5F3F4F2770E9CF80E0089523
:1029000081E008957E30B0F46630A0F48330A0F406
:1029100094E5899FF001112486E0789FE00DF11D78
:102920001124E60FF11DEE0FFF1FE65DFC4F8591B0
:102930009491089580E001C081E090E008951F9394
:10294000CF93DF930E94A013EC01C11580E5D80757
:10295000E8F5C11590E4D90708F0A8C0C03ED1053C
:1029600030F5CD3CD10508F094C0C83AD10578F4D3
:10297000C53AD10508F083C0C130D10509F47CC047
:1029800008F4F2C0C430D10508F0F1C0EDC0C33C7A
:10299000D10508F0E9C0C85AD0E0CC0FDD1FCE5AEF
:1029A000DE4F0990D881C02DCE019464E1C0C115DD
:1029B00080E2D80708F0CBC0C11591E0D90708F034
:1029C0006BC0C83ED10508F4D2C0CEC0C03682E587
:1029D000D80728F5C03492E5D90708F079C0C0328D
:1029E00082E5D80708F06CC0C11592E5D90708F454
:1029F00081C04C2F4695469580E2489FA001112446
:102A0000C37021E030E0C90102C0880F991FCA9548
:102A1000E2F7EA01C82BD92BCE019D68A9C0C03AC4
:102A200082E5D807B8F48C2F8F71C03892E5D907AA
:102A300008F07BC08695869590E2899F90011124CD
:102A4000C37081E090E002C0880F991FCA95E2F739
:102A50009A6868C0C03C82E5D80708F46DC0C03EE3
:102A600092E5D90708F080C0CF71DD27DC2FCC2795
:102A7000CE01806F906A7CC081E090E079C0C55A39
:102A8000D0E0C15BDE4F8881C82FD0E0CE019064DA
:102A90006FC0CE0190656CC08D2F0E945113182F0E
:102AA000CE0199270E94A0131F715CC0CE01992707
:102AB0000E94A013CC27DF70D06A8C2B9D2B58C0AE
:102AC000CF71D0E0DC2FCC27CE01816F906A50C04F
:102AD0008C2F8F718695869590E2899F90011124A5
:102AE000C37081E090E002C0880F991FCA95E2F799
:102AF0009C6818C08C2F8F710E94511395E0D69559
:102B0000C7959A95E1F7CF70D0E0DC2FCC27282F1E
:102B100030E084FF05C084E0220F331F8A95E1F77F
:102B2000D069CE01822B932B23C090E0D82FCC27E5
:102B3000CE01846F906A1CC08C2F8F710E9451133C
:102B40008F7190E0D82FCC27CE01906211C08D2FCD
:102B50008F710E945113182FCE0199270E94A01344
:102B60001F719062912B04C080E090E001C0CE0103
:102B7000DF91CF911F91089580959091460289230E
:102B800080934602089580910C01882351F1809131
:102B9000A80287FF26C00E943C148093770240E27F
:102BA00050E06EE172E086E792E00E943120892BCE
:102BB000D9F180E2E6E7F2E0AEE1B2E001900D92F9
:102BC0008A95E1F7E091A402F091A502309761F1B6
:102BD00086E0809376020480F581E02D86E792E01E
:102BE00022C00E943C1480936E0248E050E06EE3E5
:102BF00072E08EE692E00E943120892BA9F088E0F5
:102C0000EEE6F2E0AEE3B2E001900D928A95E1F7D4
:102C1000E091A402F091A502309731F00280F38197
:102C2000E02D8EE692E00995089590911B02809523
:102C3000892380931B02282F277069F4981759F075
:102C40009091A90292FF07C08695869586950E946D
:102C5000861910921B0208959091A90292FB2227D7
:102C600020F9281779F080FB92F99093A9026091DE
:102C7000A8027091A90284E090E00E94012082E005
:102C80000E941516089580911A029091E10189170A
:102C900019F08F5F8770FBCF0895CF93DF938091FA
:102CA000E00182958F7009F04EC08091DF0188238A
:102CB00009F449C080911A024091E1015091DB0171
:102CC0006091DA01C091DC01D091DD0177E08417D9
:102CD000D1F190E0789FF001799FF00D1124DF0190
:102CE000AE51BE4F14962C911497222349F11196A0
:102CF0002C911197251324C02C91261321C01596D1
:102D00002C91159721111CC012962D913C9113976F
:102D10002C1B3D0B283C310598F48091E0018F700D
:102D200080618093E001E851FE4F80818F70806167
:102D300080838AED91E00E9414040E94431603C030
:102D400001968770C4CFDF91CF910895A4E1B0E0E0
:102D5000ECEAF6E10C948E1F8C0186E0F801DE01AE
:102D60001F9601900D928A95E1F7F8018481E58024
:102D70009AED892E91E0992E9091DE01911120C05B
:102D8000882309F463C1EE2009F442C0C8010E94FF
:102D9000A219F82E8823E1F187E0F801D40101900F
:102DA0000D928A95E1F78091DE01813031F48091B6
:102DB000DA019091DB010E940B190E944D1648C167
:102DC000F801D080C180A280B380F090DF01209113
:102DD000DC013091DD01FF2009F4E7C0A501421BB1
:102DE000530B483C510508F09DC0882309F430C1BD
:102DF0008091E001282F207F9091DB01222361F058
:102E00009C1509F460C0C8010E94A219811163C019
:102E1000C8010E9414041AC19C1113C09091DA01D8
:102E20009D110FC0E1100DC08F7080618093E00193
:102E30008AED91E00E9414048091E001F8018683FC
:102E400003C1E1103AC040E06C2D8D2D0E94621448
:102E500040E06C2D8D2D0E946214E82E8111F4C08B
:102E6000DF86C88A8F8598890E940B19292F2295A1
:102E70002F70243020F49F70223028F009C02A508F
:102E8000223080F014C0992349F0811107C013C08B
:102E9000992321F0F8019681907F69F0805E883057
:102EA00030F409C0803F38F0815F833020F0C801E2
:102EB0000E941404EF2CFE2CCBC08091E0018160B5
:102EC0008093E001C1C09091DA019D119CCFE11087
:102ED0009ACFF80198C0EE2009F49ACF2091E00132
:102EE000822F82958F7090E002978CF08091DA01AA
:102EF0009091DB0199878887BB86AA868091DE0145
:102F00008C871D862E87CE0108960E94140487E0C8
:102F1000F801AAEDB1E001900D928A95E1F70E94C7
:102F20004D1694C09091E001292F207F51F48AED35
:102F300091E00E94140487E0F40111928A95E9F768
:102F400083C0882309F484C08091DB018C110CC0FC
:102F50008091DA018D1108C0E11006C0F801968356
:102F6000C8010E9414046AC0C8010E94A2198823E3
:102F700009F44ECFEE2009F44BCF2091E001822FCF
:102F800082958F7090E0029714F28091DA0190910F
:102F9000DB019A838983BC82AB828091DE018D83C1
:102FA0001E822F83CE010196B0CFA21AB30AF8EC8D
:102FB000AF16B10408F042C0882309F447C0FE2CC4
:102FC000EE2009F425CF8091DB018C1129C080917E
:102FD000DA018D1125C09091E00190FD18C0892F74
:102FE00082958F70282F30E02115310581F0F8018E
:102FF00096832F30310541F08F5F982F9295907F07
:1030000086818F70892B8683C8010E94140487E013
:10301000F801AAEDB1E001900D928A95E1F718C090
:10302000C8010E94A219811172CF8091E0018160D4
:103030008093E001C8010E9414040AC087E0F401F3
:1030400011928A95E9F704C0F12C02C0FF24F39491
:103050008F2D6496ECE00C94AA1FA6E0B0E0E3E3A9
:10306000F8E10C94961F0E94541C8C018091470239
:10307000909148020817190781F019821A820E945C
:10308000541C682F49815A81792F80E090E00E947A
:103090000B0310934802009347022696E4E00C9439
:1030A000B21FEF92FF920F931F93CF93DF93809104
:1030B0000A0190910B01892BD9F0809149028F5F11
:1030C00080934902811114C00E940E0990E09093F0
:1030D0000B0180930A01892B59F42FEF83EC99E0BF
:1030E000215080409040E1F700C000000E94E21BA8
:1030F0000EE811E0C0E0D0E087E0E82EED0E8D2F65
:103100000E9437088E2D0E9437088D2F0E94980844
:103110008F73F8019081891721F08083FF24F39445
:1031200001C0F12C8E2D0E9498088F73F8019781B1
:10313000891719F0878381E001C080E0F82ACF2940
:103140000E948308DF5F0F5F1F4FD730A9F6CC23A3
:1031500059F081E080934C020E94541C90934B02E2
:1031600080934A02C0E022C080914C028823F1F093
:1031700080914A0290914B020E94451C4497B0F006
:103180004EE050E06EE871E082EA91E00E9431206A
:10319000892B51F08EE0EEE8F1E0A2EAB1E0019077
:1031A0000D928A95E1F7C1E010924C028C2FCDB7B9
:1031B000DEB7E6E00C94B01FCF92DF92FF920F9340
:1031C0001F93CF93DF936C0100919D0180919C012F
:1031D000082BC7E0D0E010E0C8010C2E02C0959586
:1031E00087950A94E2F780FD04C02197A8F7F12C97
:1031F00009C0FC2EB6018C2F0E9482140E949F14DD
:10320000019799F38F2DDF91CF911F910F91FF902F
:10321000DF90CF900895CF93DF93EC010E94DC18EC
:10322000BE010E9482140E949F14DF91CF910895E5
:10323000292F9E3078F5863068F590E036E0239FA0
:10324000800D911D1124682F677023E09695879556
:103250002A95E1F7FC01EE0FFF1FE80FF91FE35B72
:10326000FD4F40E050E080E0219130E0062E02C0AA
:10327000369527950A94E2F721703327042E01C072
:10328000220F0A94EAF7822B4F5F5F4F43305105BC
:1032900059F7089580E00895292F9E3088F58630EB
:1032A00078F590E036E0239F800D911D1124282FA2
:1032B000277051E001C0550F2A95EAF723E0969553
:1032C00087952A95E1F7FC01EE0FFF1FE80FF91F24
:1032D000E35BFD4F20E030E070E04081CB01022E47
:1032E00002C0969587950A94E2F7817081958427AC
:1032F0008523842781932F5F3F4F2330310569F762
:1033000008950E94C30380939D01089521E030E059
:1033100001C0220F8A95EAF7209580919D018223B2
:103320000E948119089521E030E001C0220F8A95A2
:10333000EAF780919D01822B0E9481190895809364
:103340009C010895FC0124812223D9F08081918180
:103350000E940B1992959F70963079F010F492505C
:1033600001C09A50923068F4803F69F018F4883EAA
:1033700040F409C0843F29F406C0883E20F0813F14
:1033800011F080E0089581E0089510924602809146
:103390000C01882341F08091A80287FF04C08EE1D0
:1033A000E8E7F2E003C086E0E0E7F2E0DF011D922B
:1033B0008A95E9F780E090E00E94131D80E090E09C
:1033C0000E94EE1C10921D020E94C315EDE9F2E06E
:1033D00085E0DF011D928A95E9F71092960210921E
:1033E0009702109298020E94451D0895882321F0AB
:1033F0000E94BC150E94C3150895882339F090914E
:103400004602892B809346020E94C315089590912D
:103410009E02662309F470C091110CC090919F0226
:10342000911108C09091A102911104C09091A00245
:10343000992331F098E09093960291E0909397024F
:103440008D3C21F40E948C1D819504C08E3C29F492
:103450000E948C1D80939F02C3C08F3C21F40E9468
:103460008C1D819504C0803D29F40E948C1D8093A1
:103470009E02B6C0893D19F40E946C1D05C08A3DAC
:1034800031F40E946C1D81958093A002A9C08B3DF0
:1034900021F40E946C1D819504C08C3D29F40E948A
:1034A0006C1D8093A1029CC09FE2980F983078F425
:1034B00021E030E0A90102C0440F551F9A95E2F7C0
:1034C000CA0190919D02892B80939D0289C08D3DF8
:1034D00021F48091980281600CC08E3D21F480918E
:1034E0009802826006C08F3D09F07AC080919802F0
:1034F00084608093980274C08D3C39F490919F024F
:1035000097FF33C010929F0257C08E3C29F49091D0
:103510009F021916BCF329C08F3C29F497FF25C0E0
:1035200010929E0249C0803D19F41916CCF31DC0BB
:103530009091A002893D29F41916BCF41092A002C2
:103540003BC08A3D19F497FF10C0F8CF8B3D39F48A
:103550009091A10297FF09C01092A1022DC08C3D4D
:1035600021F49091A1021916BCF39FE2980F9830B4
:1035700080F421E030E0A90102C0440F551F9A9564
:10358000E2F7CA01809590919D02892380939D0264
:1035900013C08D3D21F4809198028E7F0BC08E3D2B
:1035A00021F4809198028D7F05C08F3D29F4809190
:1035B00098028B7F8093980280919E02811106C0B1
:1035C00080919F02811102C0109296028091A00208
:1035D000811106C08091A102811102C01092970250
:1035E0000E94451D0895882381F19CEF980F913A20
:1035F00018F40E94891C0DC090E2980F983060F476
:10360000877091E001C0990F8A95EAF7892F0E948F
:10361000BC150E94C31508959BE5980F933028F4BC
:1036200080E090E00E94131D089598E5980F9B316B
:1036300028F480E090E00E94EE1C089593E3980F38
:10364000933118F460E00E94071A0895CF938823FD
:1036500009F46EC0C82F8CEF8C0F813AA0F58091D1
:103660000C018823E1F08091A80287FF18C0EC2F9D
:10367000E695E695E695F0E0EA58FD4F8281282F21
:1036800030E04C2F477081E090E002C0880F991F16
:103690004A95E2F782239323892B61F410C0E0E777
:1036A000F2E086E792E02191C21721F08E179F0782
:1036B000D1F705C08C2F0E94891C0E94C3158C2F46
:1036C0000E94B71C10C080E28C0F883078F4C7705D
:1036D00081E090E001C0880FCA95EAF79091460218
:1036E000892B809346020E94C31522C0EBE5EC0FA4
:1036F000E33040F4F0E0E15BFE4F808190E00E9417
:10370000131D16C0E8E5EC0FEB3150F4F0E0EE0FBE
:10371000FF1FEE5AFE4F808191810E94EE1C08C06F
:1037200083E38C0F833120F461E08C2F0E94071A11
:10373000CF9108958091C50108950F931F93CF9362
:10374000DF938B01EA019091D0019430A9F58F703D
:103750008093E9008FEF9091E800815095FD06C0BD
:1037600095ED9A95F1F700008111F5CF8091E80071
:1037700085FF22C00E941C13811115C0209789F07B
:103780008091E80085FD06C08091E8008E778093E7
:10379000E800F0CFF80181918F018093F10021972B
:1037A000EDCF90E001C0982F8091E8008E77809354
:1037B000E80081E0911101C080E0DF91CF911F917D
:1037C0000F9108959AE088E10FB6F894A895809338
:1037D00060000FBE90936000FFCFF89481E080936B
:1037E000E00080E28093D800E9ECF0E010828FE105
:1037F0009EE40197F1F700C000001DBA1092680026
:103800001CBC10BE1FBA10927A0010926E0010926B
:103810006F0010927100109272001082ECEBF0E0D9
:10382000108214B817B81AB81DB810BA108215B89B
:1038300018B81BB81EB811BA0C94003F08957894BC
:103840001F920F920FB60F9211248F939F93AF93F5
:10385000BF938091AB029091AC02A091AD02B09168
:10386000AE020196A11DB11D8093AB029093AC02F4
:10387000A093AD02B093AE02BF91AF919F918F9193
:103880000F900FBE0F901F9018959C014FB7F894A2
:103890008091AB029091AC02A091AD02B091AE02CA
:1038A0004FBF821B930B08952FB7F8948091AB0202
:1038B0009091AC02A091AD02B091AE022FBF0895DD
:1038C0001F920F920FB60F9211248F939F93AF9375
:1038D000BF938091AA02811113C08091AB02909195
:1038E000AC02A091AD02B091AE024196A11DB11DF6
:1038F0008093AB029093AC02A093AD02B093AE0262
:10390000BF91AF919F918F910F900FBE0F901F901D
:10391000189590910C01992321F09091A80297FDA0
:1039200003C0EEE6F2E01DC0E82FE695E695E695C9
:10393000EE31E0F4F0E0EA58FD4F877021E030E02E
:10394000A90102C0440F551F8A95E2F7CA0180956C
:103950009281892382830895319652E0E437F507F6
:1039600029F092818913F8CF1282F6CF08959091B1
:103970000C019923D1F09091A80297FF16C0E82F6F
:10398000E695E695E695EE3140F5F0E0EA58FD4F14
:10399000877021E030E0A90102C0440F551F8A95CD
:1039A000E2F7CA019281892B16C0A0E7B2E0EFEFDF
:1039B00090E02D91821789F0EF3F19F4211101C099
:1039C000E92F9F5F9630A9F7EF3F39F00E2E000CDC
:1039D000FF0BE259FD4F828308950895A3E0B0E004
:1039E000E4EFFCE10C94981F2091A6023091A7020D
:1039F00028173907A1F09093A7028093A602E091BF
:103A0000A402F091A502309751F024E029839B8312
:103A10008A830084F185E02DCE01019609952396D5
:103A2000E2E00C94B41FA3E0B0E0E9E1FDE10C9406
:103A3000981F2091A2023091A30228173907A1F004
:103A40009093A3028093A202E091A402F091A502B8
:103A5000309751F023E029839B838A830084F1858A
:103A6000E02DCE01019609952396E2E00C94B41F57
:103A7000E091A402F091A502309729F00190F08125
:103A8000E02D0995089580E008950E94541C20912E
:103A90009E02211104C020919F02222321F09093C5
:103AA0009C0280939B022091A002211104C02091CE
:103AB000A102222321F090939A0280939902E0912F
:103AC000A402F091A502309731F00680F781E02D35
:103AD0008DE992E0099508958091980280FD18C0C3
:103AE00081FD14C082FD16C080919702882381F069
:103AF0008C3380F427E0829FC00111246CE370E0D6
:103B00000E941720862F672B19F005C083E00895C7
:103B100081E0089587E008958091980280FD17C0A4
:103B200081FD17C082FD19C080919602882399F00B
:103B30008C3398F428E3829FC00111246CE370E079
:103B40000E941720862F672B49F481E008958EE0AC
:103B500008958CE1089588E0089588E30895282F5A
:103B600035EB2303C001112497FF03C0805891094E
:103B700002C080589F4F892F0895EF92FF920F93B4
:103B80001F93CF93DF93182FEB011092BC0084EAB0
:103B90008093BC000E94541C7C018091BC0087FD76
:103BA0000DC0CF3F8FEFD807C1F3C7010E94451C5E
:103BB000C817D90790F78EEF9FEF2DC08091B900FD
:103BC000887F883041F08091B900887F803119F07A
:103BD0008FEF9FEF20C01093BB0084E88093BC0060
:103BE0000E94541C8C018091BC0087FD0BC0CF3F0C
:103BF0008FEFD807C1F3C8010E94451CC817D90729
:103C000090F7D9CF8091B900887F883111F0803446
:103C1000F9F680E090E0CDB7DEB7E6E00C94B01F97
:103C20001092B9008CE08093B80008950F931F9311
:103C3000CF93DF93EB018093BB0084E88093BC00BB
:103C40000E94541C8C018091BC0087FD0DC0CF3FA9
:103C50008FEFD807C1F3C8010E94451CC817D907C8
:103C600090F78EEF9FEF0CC02091B900287F81E084
:103C700090E0283211F480E090E0919581959109CF
:103C8000DF91CF911F910F9108950F931F93CF93C1
:103C9000DF93EC0184EC8093BC000E94541C8C01E7
:103CA0008091BC0087FD0DC0CF3F8FEFD807C1F3D7
:103CB000C8010E94451CC817D90790F78EEF9FEFE7
:103CC00003C08091BB0090E0DF91CF911F910F91D5
:103CD00008950F931F93CF93DF93EC0184E88093B3
:103CE000BC000E94541C8C018091BC0087FD0DC05B
:103CF000CF3F8FEFD807C1F3C8010E94451CC817FA
:103D0000D90790F78EEF9FEF03C08091BB0090E042
:103D1000DF91CF911F910F910895A0E0B0E0E3E90A
:103D2000FEE10C948C1F682E762E5A0169010E94C8
:103D3000541C4C010431110558F00F3F8FEF180748
:103D400051F0C80164E170E00E94741FEB0105C0EE
:103D5000C1E0D0E002C0C5E0D0E0BE01862D0E94E7
:103D6000BD1D7C0197FF0BC00F3F8FEF1807A9F314
:103D7000C4010E94451C0817190778F713C0B80141
:103D8000872D0E94161E7C01E501CA0CDB1CCC1598
:103D9000DD0541F0F7FC06C0B80189910E94161EAE
:103DA0007C01F5CF84E98093BC00C701CDB7DEB7B5
:103DB000EEE00C94A81FA0E0B0E0E1EEFEE10C9470
:103DC0008C1F782E662E7A01E9010E94541C5C013A
:103DD0000431110558F00F3F8FEF180759F0C80153
:103DE00064E170E00E94741F6B0107C0CC24C3948F
:103DF000D12C03C025E0C22ED12CB601872D0E9404
:103E0000BD1D4C0197FF0BC00F3FEFEF1E07A9F33D
:103E1000C5010E94451C0817190778F72BC0B80187
:103E2000862D0E94161E4C0197FD24C0F72DF160CF
:103E30007F2E0E94541C5C010431110528F10F3FB4
:103E40008FEF180729F1C80164E170E00E94741F28
:103E50006B01B601872D0E94BD1D4C0197FD1CC052
:103E600067012197C6018E199F098C179D0758F588
:103E700097FE1DC084E98093BC00C4011816190682
:103E800074F580E090E02BC0CC24C394D12CE1CF1A
:103E900085E0C82ED12CDDCF0F3FEFEF1E07C9F212
:103EA000C5010E94451C0817190798F6D9CFC8010B
:103EB0000E94451E4C0197FD02C0F6018083FFEF72
:103EC000CF1ADF0ACFCF97FCD5CFC8010E94691E59
:103ED0004C0197FDCFCFCE0DDF1D8883CBCFCDB763
:103EE000DEB7EEE00C94A81FAA1BBB1B51E107C074
:103EF000AA1FBB1FA617B70710F0A61BB70B881F7A
:103F0000991F5A95A9F780959095BC01CD01089508
:103F10002F923F924F925F926F927F928F929F92D9
:103F2000AF92BF92CF92DF92EF92FF920F931F93C7
:103F3000CF93DF93CDB7DEB7CA1BDB0B0FB6F89478
:103F4000DEBF0FBECDBF09942A88398848885F84B8
:103F50006E847D848C849B84AA84B984C884DF8029
:103F6000EE80FD800C811B81AA81B981CE0FD11D0D
:103F70000FB6F894DEBF0FBECDBFED010895F999DD
:103F8000FECF92BD81BDF89A992780B50895A6E12C
:103F9000B0E044E050E00C940920A8E1B0E042E039
:103FA00050E00C940920DC01A40FB51F4150504093
:103FB00048F0CB01840F951F2E910E94E41F4150C1
:103FC0005040D0F70895262FF999FECF92BD81BDBC
:103FD000F89A019700B4021639F01FBA20BD0FB647
:103FE000F894FA9AF99A0FBE08950396272F0E9423
:103FF000E41F0E94E31F252F0E94E41F242F0C942E
:10400000E41F0196272F0E94E41F0C94E31FDC019C
:10401000CB01FC01F999FECF06C0F2BDE1BDF89AD3
:10402000319600B40D9241505040B8F7089597FB77
:10403000072E16F4009407D077FD09D00E94741F54
:1040400007FC05D03EF4909581959F4F089570959B
:1040500061957F4F0895EE0FFF1F0590F491E02DBD
:104060000994FB01DC0104C08D910190801921F4B9
:1040700041505040C8F7881B990B0895F894FFCF22
:104080009A1B970E900E890E820E200001F0F1F41B
:10409000F5F6F70000000000000030313233929353
:1040A0006601010101010101000000000000006D36
:1040B000453434582F414A304F65004422476D0043
:1040C00002DE0197012A0156026F028F02A80281C7
:1040D0008283E200E900EA00B500B600B700CD0037
:1040E0008301CC008A01920194012102230224025F
:1040F0002502260227022A02B300B4006F007000D6
:084100009F01CB019F02A00208
:00000001FF
